:10000000000001308A002529831A0A28A400030E63
:10001000A5000F288312A400030EA500A5140A084A
:10002000AB008A018313A40E0408A6002008A700D1
:100030002108A8002208A9002308AA0083128B1E09
:1000400023280B193628260884002708A000280832
:10005000A1002908A2002A08A3002B088A00250E67
:1000600083008312240EA518831609000130AC000A
:100070000B118A1123283C0883169B009C131C1427
:100080001A088312BD0001303C07BE003E088316EB
:100090009B009C131C141A088312BE003D08A30089
:1000A0003E08A1002308A20008003B0DA000A00DFF
:1000B000FC30A0051F08C33920049F00BD01BC010E
:1000C000BE013E08073C031C76289F149F18662833
:1000D00083161E088312BC071E0803181E0FBD07D7
:1000E000D030A000A00B7228BE0A6128BD0CBC0C49
:1000F000BD0CBC0CBD0CBC0C1F30BD053C08A100E8
:100100003D08A20008003C308400000803198E2836
:100110000930A000A00B8A28800B88280800113025
:1001200083168F0090010F088312181064001F13AC
:100130008030831691001F169F161F1383129F177E
:100140001F149A0107309900831605088500831251
:1001500019088C11831699013F3085009500811391
:10016000093087000108C0390638810083128B16D8
:10017000C0308B04BA01851CBA0A0310BA0D0030D6
:10018000051D0130BA0403103A0DBB00BC003B2032
:100190002208AE002108AD0003103A0D083EBB0056
:1001A000BC003B202208B0002108AF001B308316A2
:1001B0009B009C131C141A08023C031D0A290730DB
:1001C0008312BB0055202208BC002108BB003C085C
:1001D000013C031CED2883160A29FF3A031DF6286B
:1001E0003B08673C031CF62883160A290310AD0D53
:1001F000AE0D0310AF0DB00D640087160430BB00C8
:10020000E130BC008320BB0B002987126430BC00A6
:100210008320831600008312BA01051CBA0A03105A
:10022000BA0D0030851E0130BA0403103A0D103E9D
:10023000BB00BC003B202208B2002108B10007121D
:10024000871207110130AC00372903081F398300DA
:10025000113083168F0090010F0883121F13003096
:100260008316910083129A01073099008F28053078
:10027000B6003208B8003108B700B3013308043CB7
:10028000031C4D2964008716C830BC0083208712E8
:10029000C830BC008320B30A3E29391064003918E5
:1002A0005329051A5529071656290712AC080319B0
:1002B000A029AC010730BB0055202208B500210859
:1002C000B4002E083502031C6D29031D6B29340868
:1002D0002D0203186D2907156E2907113008350204
:1002E000031C8029031D782934082F020318802954
:1002F000B60803197D29B6037F293914871282298C
:100300000530B60035082E02031C9B29031D8C29DD
:100310002D08340203189B29B708031D9229B80839
:100320000319982937080319B803B70387169A29C0
:10033000391087129F293208B8003108B7006400CD
:040340004E29A12978
:1042000003002C00030042000300520003005F0083
:10421000030038000300580003006B0003007F0018
:1042200000000A000000140000003C0000007800BC
:08423000000000000000010085
:02400E00D430AC
:00000001FF
;PIC16F684
;CRC=E395  CREATED="06-Aug-20 18:13"
