:020000040000FA
:1000000000308A00F2280000831A0A28A500030E97
:10001000A6000F288312A500030EA600A6140A0846
:10002000AD008A018313A50E0408A7002008A800CC
:100030002108A9002208AA002308AB002408AC006C
:1000400083128B1E25280B193A28270884002808BC
:10005000A0002908A1002A08A2002B08A3002C0850
:10006000A4002D088A00260E83008312250EA618F0
:10007000831609000130AE000B118A1125283E08B5
:1000800083169B009C131C141A088312BF000130B6
:100090003E07C000400883169B009C131C141A08DE
:1000A0008312C0003F08A3004008A1002308A2005B
:1000B0000034113083168F000F088312181064006B
:1000C0001F138030831691001F169F161F13831273
:1000D0009F171F149A0107309900831605088500A1
:1000E000831219088C11831699013F308500950001
:1000F0008113093087000108C03906388100831256
:100100008B16C0308B04BC01851CBC0A0310BC0DCF
:100110000030051D0130BC0403103C0DBD00BE00C5
:100120003F202208B0002108AF0003103C0D083E1C
:10013000BD00BE003F202208B2002108B100BC0172
:10014000051CBC0A0310BC0D0030851E0130BC0428
:1001500003103C0D103EBD00BE003F202208B4003D
:100160002108B3000712871207110130AE000329DE
:100170003C30840000080319C3280930A000A00BFC
:10018000BF28800BBD2800343C0DA000A00DFC3022
:10019000A0051F08C33920049F00BE01BD01BF0197
:1001A0003F08073C031CE5289F149F18D528831699
:1001B0001E088312BD071E0803181E0FBE07D0308D
:1001C000A000A00BE128BF0AD028BE0CBD0CBE0CBD
:1001D000BD0CBE0CBD0C1F30BE053D08A1003E0885
:1001E000A2002D2984011F308305113083168F0052
:1001F0000F0883121F1300308316910083129A0197
:100200000730990059280530B8003408BA0033087F
:10021000B900B5013508043C031C19296400871690
:10022000C830BC00B8208712C830BC00B820B50A5E
:100230000A293B10640000303B180130013C0319CF
:100240002329051A2529071626290712AE0803199E
:100250007029AE010730BC00C4282208B70021086D
:10026000B60030083702031C3D29031D3B29360820
:100270002F0203183D2907153E29071132083702BE
:10028000031C5029031D4829360831020318502940
:10029000B80803194D29B8034F293B148712522976
:1002A0000530B80037083002031C6B29031D5C2998
:1002B0002F08360203186B29B908031D6229BA08F2
:1002C0000319682939080319BA03B90387166A297B
:1002D0003B1087126F293408BA003308B900640054
:0402E0001A29630074
:104200000200F2000300050003002C00030042003E
:1042100003001800030012000300380003005800D8
:104220000000010001002C00020058000400B00052
:08423000000000000000010085
:02400E00C433B9
:00000001FF
;PIC16F684
;CRC=005E  CREATED="07-Apr-14 13:43"
