:020000040000FA
:1000000001308A0041290000831A0A28A500030E46
:10001000A6000F288312A500030EA600A6140A0846
:10002000AD008A018313A50E0408A7002008A800CC
:100030002108A9002208AA002308AB002408AC006C
:1000400083128B1E25280B193A28270884002808BC
:10005000A0002908A1002A08A2002B08A3002C0850
:10006000A4002D088A00260E83008312250EA618F0
:10007000831609000130AE000B118A1125283E08B5
:1000800083169B009C131C141A088312BF000130B6
:100090003E07C000400883169B009C131C141A08DE
:1000A0008312C0003F08A3004008A1002308A2005B
:1000B00000343D0DA000A00DFC30A0051F08C33981
:1000C00020049F00BF01BE01C0014008073C031C83
:1000D0007A289F149F186A2883161E088312BE0769
:1000E0001E0803181E0FBF07D030A000A00B7628F3
:1000F000C00A6528BF0CBE0CBF0CBE0CBF0CBE0CEA
:100100001F30BF053E08A1003F08A20000343E306A
:1001100084000008031992280930A000A00B8E2843
:10012000800B8C280034113083168F000F08831247
:10013000181064001F138030831691001F169F163D
:100140001F1383129F171F149A01073099008316FB
:1001500005088500831219088C11831699013F3018
:10016000850095008113093087000108C0390638E1
:10017000810083128B16C0308B04BC01851CBC0A25
:100180000310BC0D0030051D0130BC0403103C0DF4
:10019000BD00BE003F202208B0002108AF000310C0
:1001A0003C0D083EBD00BE003F202208B2002108E1
:1001B000B1001B3083169B009C131C141A08023CD0
:1001C000031D0D2907308312BD0059202208BE00EF
:1001D0002108BD003E08013C031CF02883160D29B0
:1001E000FF3A031DF9283D08673C031CF9288316D4
:1001F0000D290310AF0DB00D0310B10DB20D640049
:1002000087160430BD00E130BE008720BD0B0329F6
:1002100087126430BE00872083168312BC01051C40
:10022000BC0A03103C0D083EBD00BE003F20220862
:10023000B2002108B100BC01051CBC0A0310BC0DB2
:100240000030851E0130BC0403103C0D103EBD0083
:10025000BE003F202208B4002108B300BC01851E67
:10026000BC0A03103C0D103EBD00BE003F2022081A
:10027000B4002108B3000712871207110130AE0045
:10028000522984011F308305113083168F000F0817
:1002900083121F1300308316910083129A010730D6
:1002A000990093280530B8003408BA003308B90023
:1002B000B5013508043C031C682964008716C83062
:1002C000BE0087208712C830BE008720B50A592992
:1002D0003B10640000303B180130013C03197229C7
:1002E000051A7429071675290712AE080319BF29C4
:1002F000AE010730BD0059202208B7002108B60022
:1003000030083702031C8C29031D8A2936082F0266
:1003100003188C2907158D29071132083702031C91
:100320009F29031D97293608310203189F29B80811
:1003300003199C29B8039E293B148712A129053073
:10034000B80037083002031CBA29031DAB292F0857
:1003500036020318BA29B908031DB129BA080319CE
:10036000B72939080319BA03B9038716B9293B100D
:100370008712BE293408BA003308B900640069291D
:02038000630018
:104200000200FF00030002000300050003000C0091
:1042100003001F0003002500000000000000000054
:104220000200580001002C00000000000000000007
:08423000000000000000030083
:02400E00C433B9
:00000001FF
;PIC16F684
;CRC=FD25  CREATED="18-Dec-14 15:02"
